:020000040800F2
:10000000002800204D120008A1100008A7100008C9
:10001000AD100008B3100008B9100008000000007F
:10002000000000000000000000000000BF100008F9
:10003000CB10000800000000D7100008E3100008F3
:1000400095120008951200089512000895120008F4
:1000500095120008951200089512000895120008E4
:1000600095120008951200089512000895120008D4
:1000700095120008951200089512000895120008C4
:1000800095120008951200089512000895120008B4
:1000900095120008951200089512000895120008A4
:1000A0009512000895120008951200089512000894
:1000B000F1100008951200080000000095120008D9
:1000C00095120008000000000000000095120008D2
:1000D00000000000951200089512000800000000C2
:1000E0009512000895120008951200080000000003
:1000F0000000000000000000000000000000000000
:0C01000000000000000000005FF808F1A3
:10010C0010B5054C237833B9044B13B10448AFF345
:10011C0000800123237010BD60000020000000004F
:10012C00C428000808B5034B1BB103490348AFF3BF
:10013C00008008BD0000000064000020C4280008F6
:10014C0080B500AF1F4B1B681F4A13601F4B1B6809
:10015C001C4A13604FF400511D4801F081FB03460B
:10016C001A461A4B1A60184B1A68164B1B689A429F
:10017C0026D1144B1A68154B1B689A4220D1154B8B
:10018C001A68124B1B689A420ED0104B1B68114A0E
:10019C001360104B1B68002B12D1012000F08CF95E
:1001AC000D4BC8221A600BE00B4B1B68013B0A4A33
:1001BC001360094B1B68002B02D1064B01221A60FD
:1001CC0000BF80BD040000200000002008000020BB
:1001DC00001001400C0000203000002080B500AF62
:1001EC001F4B1B681F4A13601F4B1B681C4A136074
:1001FC004FF480411D4801F033FB03461A461A4B5D
:10020C001A60184B1A681A4B1B689A4226D1144B69
:10021C001A68154B1B689A4220D1164B1A68124B60
:10022C001B689A420ED0104B1B68124A13600E4B7F
:10023C001B68002B12D1022000F03EF90E4BC82295
:10024C001A600BE00C4B1B68013B0B4A13600A4B0A
:10025C001B68002B02D1074B01221A6000BF80BD26
:10026C001400002010000020180000200010014095
:10027C00040000201C0000203000002080B500AFDE
:10028C001F4B1B681F4A13601F4B1B681C4A1360D3
:10029C004FF400411D4801F0E3FA03461A461A4B8D
:1002AC001A60184B1A68164B1B689A4226D1144BCD
:1002BC001A68154B1B689A4220D1154B1A68124BC1
:1002CC001B689A420ED0104B1B68114A13600E4BE0
:1002DC001B68002B12D1032000F0EEF80D4BC82246
:1002EC001A600BE00B4B1B68013B0A4A1360094B6D
:1002FC001B68002B02D1064B01221A6000BF80BD87
:10030C0024000020200000202800002000100140C4
:10031C002C0000203000002080B500AF1D4B1B6866
:10032C00012B34D11C4B1B6801331B4A13601A4B35
:10033C001B68032B03DD184B00221A6006E0164BDA
:10034C001B68002B02D0154B01221A6000222021C1
:10035C00134801F09CFA00224021114801F097FA51
:10036C00002280210E4801F092FA00224FF4807195
:10037C000B4801F08CFA00224FF40071084801F090
:10038C0086FA00224FF48061054801F080FA00BF24
:10039C0080BD00BF7C00002088000020A40000204D
:1003AC000008014080B400AF124B1B68012B1DD11B
:1003BC00114B1B68013B114A52F823200E4B1B6852
:1003CC00013B02F57A720D4941F823200A4B1B6858
:1003DC00013B0A4A52F82330094A934206DD064B88
:1003EC001B68013B054A002142F8231000BFBD46A3
:1003FC0080BC704780000020880000204000002056
:10040C00B882010080B500AF254B1B68012B44D18D
:10041C00244B1B68012B0FD1224B1B68013B224A3A
:10042C0052F82330214A1360204B1A68204B1B686A
:10043C00D31A204A136030E01A4B1B68022B0FD1E1
:10044C00184B1B68013B184A52F82330184A1360AA
:10045C00174B1A68174B1B681344144A13601CE0A3
:10046C00104B1B68032B0FD10E4B1B68013B0E4A24
:10047C0052F823300F4A13600D4B1A680D4B1B6852
:10048C0013440A4A136008E0064B1B68002B04D087
:10049C0000F03AFC034B00221A6000BF80BD00BF85
:1004AC008400002088000020400000203400002040
:1004BC003C0000203800002080B582B000AF78608E
:1004CC007B68032B15D07B68032B18DC7B68012B16
:1004DC0003D07B68022B06D011E00B4B01221A6073
:1004EC00FFF71AFF0CE0094B01221A60FFF75AFFC5
:1004FC0006E0074B01221A60FFF784FF00E000BF03
:10050C0000BF0837BD4680BD7C0000208000002065
:10051C008400002080B586B000AF474B1B68474A6B
:10052C0082FB03125211DB17D31A7B61444B1B68FD
:10053C00424A82FB03125211DB17D31A3B617B69CF
:10054C00404A82FB03129210DB17D31AFB607A69C4
:10055C003C4B83FB02139910D317C91A0B469B0013
:10056C000B445B00D31ABB603B69364A82FB031217
:10057C009210DB17D31A7B603A69324B83FB021360
:10058C009910D317C91A0B469B000B445B00D31A66
:10059C003B60012280212C4801F079F901224FF4B3
:1005AC008071294801F073F901224FF4007126483B
:1005BC0001F06DF901224FF48061234801F067F9D5
:1005CC00224B1B68032B32D801A252F823F000BF38
:1005DC00ED050008FF0500081306000827060008B3
:1005EC0000228021184801F052F9F86800F0B8F8A0
:1005FC001DE000224FF48071134801F048F9B868EF
:10060C0000F0AEF813E000224FF400710E4801F038
:10061C003EF9786800F0A4F809E000224FF48061FC
:10062C00094801F034F9386800F09AF800BF00BFAF
:10063C001837BD4680BD00BF900000201F85EB51D0
:10064C009800002067666666000C0140A800002038
:10065C0080B582B000AF3C4B1B68013B3B4A52F863
:10066C0023303B4A82FB03121213DB17D31A7B6035
:10067C00354B1B68013B354A52F82320344B83FB26
:10068C0002131913D317CB1A42F2107101FB03F3A7
:10069C00D31A304A82FB03129211DB17D31A3B6038
:1006AC00012280212C4801F0F2F801224FF48071D4
:1006BC00294801F0ECF801224FF40071264801F0B2
:1006CC00E6F801224FF48061234801F0E0F8234B57
:1006DC001B68032B33D801A252F823F0F90600084B
:1006EC000B070008230700083707000800228021A9
:1006FC00194801F0CCF8002000F032F81FE000227D
:10070C004FF48071144801F0C2F80F4B1B68184667
:10071C0000F026F813E000224FF400710E4801F0AF
:10072C00B6F8786800F01CF809E000224FF48061FC
:10073C00094801F0ACF8386800F012F800BF00BFAF
:10074C000837BD4680BD00BF880000204000002057
:10075C00AD8BDB68D34D6210000C0140A80000206B
:10076C0080B582B000AF786001227F21C54801F0CE
:10077C008EF87B68092B00F27F8101A252F823F0DE
:10078C00B5070008FD070008450800088D0800089B
:10079C00D50800081D09000865090008AD09000806
:1007AC00F50900083D0A000800220121B54801F0B6
:1007BC006EF800220221B34801F069F800220421EE
:1007CC00B04801F064F800220821AE4801F05FF84F
:1007DC0000221021AB4801F05AF800222021A94830
:1007EC0001F055F801224021A64801F050F844E1EF
:1007FC0001220121A34801F04AF800220221A1485C
:10080C0001F045F8002204219E4801F040F8012235
:10081C0008219C4801F03BF801221021994801F075
:10082C0036F801222021974801F031F801224021AD
:10083C00944801F02CF820E100220121914801F0AC
:10084C0026F8002202218F4801F021F80122042110
:10085C008C4801F01CF8002208218A4801F017F896
:10086C0000221021874801F012F80122202185482E
:10087C0001F00DF800224021824801F008F8FCE05C
:10088C00002201217F4801F002F8002202217D485C
:10089C0000F0FDFF002204217A4800F0F8FF00224E
:1008AC000821784800F0F3FF01221021754800F070
:1008BC00EEFF01222021734800F0E9FF00224021C5
:1008CC00704800F0E4FFD8E0012201216D4800F0EF
:1008DC00DEFF002202216B4800F0D9FF0022042128
:1008EC00684800F0D4FF01220821664800F0CFFFD1
:1008FC0001221021634800F0CAFF00222021614828
:10090C0000F0C5FF002240215E4800F0C0FFB4E0BB
:10091C00002201215B4800F0BAFF01220221594854
:10092C0000F0B5FF00220421564800F0B0FF002271
:10093C000821544800F0ABFF01221021514800F06F
:10094C00A6FF002220214F4800F0A1FF00224021E9
:10095C004C4800F09CFF90E000220121494800F037
:10096C0096FF01220221474800F091FF002204214A
:10097C00444800F08CFF00220821424800F087FF19
:10098C00002210213F4800F082FF002220213D4828
:10099C0000F07DFF002240213A4800F078FF6CE027
:1009AC0000220121374800F072FF00220221354855
:1009BC0000F06DFF00220421324800F068FF012294
:1009CC000821304800F063FF012210212D4800F06F
:1009DC005EFF012220212B4800F059FF012240210B
:1009EC00284800F054FF48E000220121254800F07F
:1009FC004EFF00220221234800F049FF002204216F
:100A0C00204800F044FF002208211E4800F03FFF60
:100A1C00002210211B4800F03AFF00222021194827
:100A2C0000F035FF00224021164800F030FF24E092
:100A3C0000220121134800F02AFF00220221114854
:100A4C0000F025FF002204210E4800F020FF0022B8
:100A5C0008210C4800F01BFF01221021094800F06E
:100A6C0016FF00222021074800F011FF0022402130
:100A7C00044800F00CFF00E000BF00BF0837BD4683
:100A8C0080BD00BF000C014080B500AF944B1B68CB
:100A9C00032B00F21A8101A252F823F0B90A0008C4
:100AAC00530C00087F0C0008AB0C00088D4B1B6826
:100ABC00002B07D08B4B00221A60FA2000F056FB5B
:100ACC00FFF728FD884B1B68002B55D0864B002266
:100ADC001A60864B1B68022B36D0022B4DDC002B88
:100AEC0002D0012B18D048E0804B01221A60002262
:100AFC0020217F4800F0CBFE002240217C4800F0F2
:100B0C00C6FE012280217A4800F0C1FE794B1B6899
:100B1C00184600F0F7FA30E0744B02221A600022FB
:100B2C002021734800F0B3FE00228021704800F0B1
:100B3C00AEFE012240216E4800F0A9FE6E4B1B68F0
:100B4C00184600F0DFFA18E0684B00221A60002209
:100B5C004021674800F09BFE00228021644800F091
:100B6C0096FE01222021624800F091FE634B1B6827
:100B7C00184600F0C7FA00E000BF614B1B68002B61
:100B8C005FD05F4B00221A605E4B1B68022B3DD07E
:100B9C00022B00F39C80002B02D0012B1BD096E083
:100BAC00584B01221A6000224FF48071504800F01B
:100BBC006EFE00224FF400714D4800F068FE0122D9
:100BCC004FF480614A4800F062FE4A4B1B6818469D
:100BDC0000F0B2FA36E04B4B02221A6000224FF4BE
:100BEC008071434800F053FE00224FF4806140486E
:100BFC0000F04DFE01224FF400713D4800F047FE1D
:100C0C003D4B1B68184600F097FA1BE03D4B002249
:100C1C001A6000224FF48061354800F038FE002243
:100C2C004FF40071324800F032FE01224FF4807113
:100C3C002F4800F02CFE314B1B68184600F07CFA54
:100C4C0000E000BF43E0274B1B68002B41D0254B35
:100C5C0000221A60FA2000F089FA2021244800F0C2
:100C6C002EFE4FF48071224800F029FEFFF7F0FCB5
:100C7C002FE01C4B1B68002B2DD01A4B00221A6046
:100C8C00FA2000F073FA4021194800F018FE4FF4D6
:100C9C000071174800F013FEFFF7DAFC1BE0114B54
:100CAC001B68002B19D00F4B00221A60FA2000F0A1
:100CBC005DFA80210E4800F002FE4FF480610C4872
:100CCC0000F0FDFDFFF7C4FC07E000BF06E000BF2D
:100CDC0004E000BF02E000BF00E000BF00BF80BD29
:100CEC0088000020A4000020940000208C0000202C
:100CFC0000080140380000203C0000203400002097
:100D0C009C0000204C00002080B500AF0022202168
:100D1C001F4800F0BCFD002240211D4800F0B7FD2B
:100D2C00002280211A4800F0B2FD00224FF480719D
:100D3C00174800F0ACFD00224FF40071144800F08D
:100D4C00A6FD00224FF48061114800F0A0FD0122A5
:100D5C0020210F4800F09BFD4FF4FA7000F0D2F9FF
:100D6C0001224FF480610A4800F091FD4FF4967017
:100D7C0000F0E2F9FA2000F0F9F9064B00221A60B3
:100D8C00054B02221A60054B00221A6000BF80BD81
:100D9C00000801408C0000204C000020A80000201E
:100DAC0080B500AF00F072FA00F00EF800F094F885
:100DBC0000F046F8034801F0C7F9FFF7A5FFFFF76D
:100DCC0063FEFCE7AC00002080B590B000AF07F1EB
:100DDC00180328220021184601F066FD3B1D002255
:100DEC001A605A609A60DA601A610223BB610123AF
:100DFC00BB621023FB6200237B6307F118031846C8
:100E0C0000F076FD0346002B01D000F0E7F80F232D
:100E1C007B600023BB600023FB6000233B6100234D
:100E2C007B613B1D0021184600F0E2FF0346002BBE
:100E3C0001D000F0D3F800BF4037BD4680BD0000A4
:100E4C0080B586B000AF07F1080300221A605A6023
:100E5C009A60DA603B4600221A605A601D4B4FF0D4
:100E6C0080421A601B4B41F63F725A60194B0022AC
:100E7C009A60184B0922DA60164B00221A61154B46
:100E8C0000229A61134801F00FF90346002B01D0A0
:100E9C0000F0A4F84FF48053BB6007F10803194627
:100EAC000C4801F08DFA0346002B01D000F096F8A7
:100EBC0000233B6000237B603B461946054801F04C
:100ECC0065FC0346002B01D000F088F800BF1837F2
:100EDC00BD4680BDAC00002080B588B000AF07F1E6
:100EEC00100300221A605A609A60DA602F4B9B69DB
:100EFC002E4A43F0100393612C4B9B6903F01003B3
:100F0C00FB60FB68294B9B69284A43F004039361FF
:100F1C00264B9B6903F00403BB60BB68234B9B69A6
:100F2C00224A43F008039361204B9B6903F00803AA
:100F3C007B607B6800224FF4FC611D4800F0A7FC2D
:100F4C00002240F2FF711B4800F0A1FC4FF46043FB
:100F5C003B6100237B610123BB6107F11003194640
:100F6C00154800F003FB4FF4FC633B6101237B61EC
:100F7C000023BB610223FB6107F1100319460C48E7
:100F8C0000F0F4FA40F2FF733B6101237B61002314
:100F9C00BB610223FB6107F110031946054800F001
:100FAC00E5FA00BF2037BD4680BD00BF00100240EF
:100FBC0000080140000C01400010014080B582B0D7
:100FCC0000AF786000F0ECF8FFF7BAF8FFF706F91D
:100FDC00FFF754F900BF0837BD4680BD80B400AFA1
:100FEC0072B600BFFEE7000080B485B000AF154BB1
:100FFC009B69144A43F001039361124B9B6903F004
:10100C000103BB60BB680F4BDB690E4A43F0805396
:10101C00D3610C4BDB6903F080537B607B680A4B1C
:10102C005B68FB60FB6823F0E063FB60FB6843F0EC
:10103C008063FB60044AFB68536000BF1437BD46F5
:10104C0080BC7047001002400000014080B584B0A5
:10105C0000AF78607B681B68B3F1804F13D10C4BE9
:10106C00DB690B4A43F00103D361094BDB6903F0E5
:10107C000103FB60FB68002200211C2000F03FFAFA
:10108C001C2000F058FA00BF1037BD4680BD00BFD1
:10109C000010024080B400AFFEE780B400AFFEE762
:1010AC0080B400AFFEE780B400AFFEE780B400AFC1
:1010BC00FEE780B400AF00BFBD4680BC704780B473
:1010CC0000AF00BFBD4680BC704780B400AF00BF0E
:1010DC00BD4680BC704780B500AF00F01DF900BF65
:1010EC0080BD000080B500AF024801F079F800BF68
:1010FC0080BD00BFAC00002080B400AF00BFBD4677
:10110C0080BC704780B483B000AF7860074B1B681D
:10111C007A6892FBF3F3064A1360064B00221A60BE
:10112C0000BF0C37BD4680BC704700BF5400002088
:10113C00900000209400002080B483B000AF786051
:10114C00074B1B687A6892FBF3F3064A1360064B55
:10115C0000221A6000BF0C37BD4680BC704700BF30
:10116C0054000020980000209C00002080B483B024
:10117C0000AF7860074B1B687A6892FBF3F3064A62
:10118C001360064B00221A6000BF0C37BD4680BCB2
:10119C00704700BF54000020A0000020A4000020D5
:1011AC0080B400AF1F4B1B68002B0BDD1D4B1B6865
:1011BC00013B1C4A13601B4B1B68002B02DC1A4BB7
:1011CC0001221A60194B1B68002B0BDD174B1B6897
:1011DC00013B164A1360154B1B68002B02DC144BA9
:1011EC0001221A60134B1B68002B17DD114B1B6877
:1011FC00013B104A13600F4B1B68002B0EDC0E4B8F
:10120C0001221A600D4B1B6801335A4203F0030391
:10121C0002F0030258BF5342084A136000BFBD4698
:10122C0080BC7047900000209400002098000020A3
:10123C009C000020A0000020A4000020A80000209A
:10124C00FFF75AFF0B480C490C4A002302E0D45814
:10125C00C4500433C4188C42F9D3094A094C0023F6
:10126C0001E013600432A242FBD301F0F9FAFFF75C
:10127C0097FD70470000002060000020082900083E
:10128C0060000020F8000020FEE7000080B500AFF1
:10129C00084B1B68074A43F010031360032000F04F
:1012AC0023F90F2000F008F8FFF79EFE00231846E4
:1012BC0080BD00BF0020024080B582B000AF7860D6
:1012CC00124B1A68124B1B7819464FF47A73B3FB06
:1012DC00F1F3B2FBF3F3184600F03BF90346002B95
:1012EC0001D001230EE07B680F2B0AD8002279680D
:1012FC004FF0FF3000F003F9064A7B6813600023BF
:10130C0000E0012318460837BD4680BD5000002080
:10131C005C0000205800002080B400AF054B1B7807
:10132C001A46054B1B681344034A136000BFBD46A5
:10133C0080BC70475C000020F400002080B400AF3B
:10134C00024B1B681846BD4680BC7047F400002059
:10135C0080B485B000AF78607B6803F00703FB6056
:10136C000C4BDB68BB60BA684FF6FF031340BB60E5
:10137C00FB681A02BB68134343F0BF6343F40033AA
:10138C00BB60044ABB68D36000BF1437BD4680BC49
:10139C00704700BF00ED00E080B400AF044BDB6889
:1013AC001B0A03F007031846BD4680BC704700BFFC
:1013BC0000ED00E080B483B000AF0346FB7197F9F9
:1013CC000730002B0BDBFB7903F01F02064997F962
:1013DC0007305B09012000FA02F241F8232000BF1C
:1013EC000C37BD4680BC704700E100E080B483B090
:1013FC0000AF03463960FB7197F90730002B0ADB0D
:10140C003B68DAB20C4997F907301201D2B20B449F
:10141C0083F800230AE03B68DAB20849FB7903F051
:10142C000F03043B1201D2B20B441A7600BF0C37E7
:10143C00BD4680BC704700BF00E100E000ED00E05D
:10144C0080B489B000AFF860B9607A60FB6803F0D3
:10145C000703FB61FB69C3F10703042B28BF0423BB
:10146C00BB61FB690433062B02D9FB69033B00E02B
:10147C0000237B614FF0FF32BB6902FA03F3DA43BE
:10148C00BB681A407B699A404FF0FF317B6901FAC7
:10149C0003F3D9437B680B40134318462437BD46EE
:1014AC0080BC704780B582B000AF78607B68013B30
:1014BC00B3F1807F01D301230FE00A4A7B68013B23
:1014CC0053600F214FF0FF30FFF790FF054B0022C8
:1014DC009A60044B07221A60002318460837BD4651
:1014EC0080BD00BF10E000E080B582B000AF786036
:1014FC007868FFF72DFF00BF0837BD4680BD80B56B
:10150C0086B000AF0346B9607A60FB7300237B6141
:10151C00FFF742FF78617A68B9687869FFF790FF46
:10152C00024697F90F3011461846FFF75FFF00BFD0
:10153C001837BD4680BD80B582B000AF0346FB7145
:10154C0097F907301846FFF735FF00BF0837BD463F
:10155C0080BD80B582B000AF78607868FFF7A2FFDD
:10156C00034618460837BD4680BD000080B48BB0DA
:10157C0000AF7860396000237B6200233B6248E156
:10158C0001227B6A02FA03F3FB613B681B68FA6970
:10159C001340BB61BA69FB699A4240F037813B68E2
:1015AC005B68A34A93425ED0A14A934275D8A14A84
:1015BC00934258D09F4A93426FD89F4A934252D03D
:1015CC009D4A934269D89D4A93424CD09B4A934280
:1015DC0063D89B4A934246D0994A93425DD8122BCA
:1015EC002AD8122B59D801A252F823F073160008EE
:1015FC004D1600085F160008A1160008A716000873
:10160C00A7160008A7160008A7160008A7160008BA
:10161C00A7160008A7160008A7160008A7160008AA
:10162C00A7160008A7160008A7160008A71600089A
:10163C005516000869160008824A934213D02CE014
:10164C003B68DB683B6229E03B68DB6804333B6248
:10165C0024E03B68DB6808333B621FE03B68DB68D7
:10166C000C333B621AE03B689B68002B02D10423CD
:10167C003B6213E03B689B68012B05D108233B625E
:10168C007B68FA691A6109E008233B627B68FA6996
:10169C005A6103E000233B6200E000BFBB69FF2BF3
:1016AC0001D87B6801E07B6804337B61BB69FF2B4D
:1016BC0002D87B6A9B0002E07B6A083B9B003B6183
:1016CC007B691A680F213B6901FA03F3DB431A406B
:1016DC00396A3B6901FA03F31A437B691A603B6868
:1016EC005B6803F08053002B00F09080564B9B6995
:1016FC00554A43F001039361534B9B6903F001037B
:10170C00BB60BB68514A7B6A9B08023352F823309A
:10171C00FB607B6A03F003039B000F2202FA03F3C6
:10172C00DB43FA681340FB607B68494A93420DD057
:10173C007B68484A934207D07B68474A934201D161
:10174C00022304E0032302E0012300E000237A6A71
:10175C0002F0030292009340FA681343FB603B498A
:10176C007B6A9B080233FA6841F823203B685B686C
:10177C0003F48013002B06D0384B9A683749BB69A9
:10178C0013438B6006E0354B9A68BB69DB433349E6
:10179C0013408B603B685B6803F40013002B06D08E
:1017AC002E4BDA682D49BB691343CB6006E02B4BFB
:1017BC00DA68BB69DB4329491340CB603B685B6843
:1017CC0003F40033002B06D0244B5A682349BB6921
:1017DC0013434B6006E0214B5A68BB69DB431F493E
:1017EC0013404B603B685B6803F48033002B06D0DE
:1017FC001A4B1A681949BB6913430B6006E0174B67
:10180C001A68BB69DB43154913400B607B6A0133D3
:10181C007B623B681A687B6A22FA03F3002B7FF425
:10182C00AFAE00BF00BF2C37BD4680BC704700BFB9
:10183C0000003210000031100000221000002110B6
:10184C0000001210000011100010024000000140B6
:10185C0000080140000C0140001001400004014050
:10186C0080B485B000AF78600B467B807B689A684B
:10187C007B881340002B02D00123FB7301E0002373
:10188C00FB73FB7B18461437BD4680BC704780B495
:10189C0083B000AF78600B467B8013467B707B78FF
:1018AC00002B03D07A887B681A6103E07B881A04CA
:1018BC007B681A6100BF0C37BD4680BC704780B492
:1018CC0085B000AF78600B467B807B68DB68FB6083
:1018DC007A88FB6813401A04FB68D9437B880B4059
:1018EC001A437B681A6100BF1437BD4680BC704731
:1018FC0080B586B000AF78607B68002B01D10123E6
:10190C006CE27B681B6803F00103002B00F08780FE
:10191C00924B5B6803F00C03042B0CD08F4B5B6871
:10192C0003F00C03082B12D18C4B5B6803F480334F
:10193C00B3F5803F0BD1894B1B6803F40033002BAC
:10194C006CD07B685B68002B68D1012346E27B6816
:10195C005B68B3F5803F06D1804B1B687F4A43F42C
:10196C00803313602EE07B685B68002B0CD17B4BC3
:10197C001B687A4A23F480331360784B1B68774AD0
:10198C0023F4802313601DE07B685B68B3F5A02F04
:10199C000CD1724B1B68714A43F4802313606F4B5C
:1019AC001B686E4A43F4803313600BE06B4B1B686F
:1019BC006A4A23F480331360684B1B68674A23F42C
:1019CC00802313607B685B68002B13D0FFF7B6FC99
:1019DC00386108E0FFF7B2FC02463B69D31A642B6E
:1019EC0001D90323FAE15D4B1B6803F40033002B90
:1019FC00F0D014E0FFF7A2FC386108E0FFF79EFC82
:101A0C0002463B69D31A642B01D90323E6E1534BFD
:101A1C001B6803F40033002BF0D100E000BF7B689F
:101A2C001B6803F00203002B63D04C4B5B6803F084
:101A3C000C03002B0BD0494B5B6803F00C03082BF9
:101A4C001CD1464B5B6803F48033002B16D1434BFF
:101A5C001B6803F00203002B05D07B681B69012B6C
:101A6C0001D00123BAE13D4B1B6823F0F8027B68DF
:101A7C005B69DB00394913430B603AE07B681B69F7
:101A8C00002B20D0364B01221A60FFF757FC38612F
:101A9C0008E0FFF753FC02463B69D31A022B01D92D
:101AAC0003239BE12D4B1B6803F00203002BF0D0AA
:101ABC002A4B1B6823F0F8027B685B69DB00274923
:101ACC0013430B6015E0264B00221A60FFF736FC1F
:101ADC00386108E0FFF732FC02463B69D31A022B4F
:101AEC0001D903237AE11D4B1B6803F00203002B81
:101AFC00F0D17B681B6803F00803002B3AD07B689D
:101B0C009B69002B19D0174B01221A60FFF716FCAA
:101B1C00386108E0FFF712FC02463B69D31A022B2E
:101B2C0001D903235AE10D4B5B6A03F00203002B2E
:101B3C00F0D0012000F09AFA1CE00A4B00221A6047
:101B4C00FFF7FCFB38610FE0FFF7F8FB02463B693F
:101B5C00D31A022B08D9032340E100BF0010024026
:101B6C0000004242800442429E4B5B6A03F0020337
:101B7C00002BE9D17B681B6803F00403002B00F0F9
:101B8C00A6800023FB75974BDB6903F08053002B79
:101B9C000DD1944BDB69934A43F08053D361914B45
:101BAC00DB6903F08053BB60BB680123FB758E4B74
:101BBC001B6803F48073002B18D18B4B1B688A4A6B
:101BCC0043F480731360FFF7B9FB386108E0FFF74B
:101BDC00B5FB02463B69D31A642B01D90323FDE004
:101BEC00814B1B6803F48073002BF0D07B68DB689F
:101BFC00012B06D17B4B1B6A7A4A43F0010313621B
:101C0C002DE07B68DB68002B0CD1764B1B6A754A88
:101C1C0023F001031362734B1B6A724A23F0040313
:101C2C0013621CE07B68DB68052B0CD16D4B1B6AC7
:101C3C006C4A43F0040313626A4B1B6A694A43F013
:101C4C00010313620BE0674B1B6A664A23F0010326
:101C5C001362644B1B6A634A23F0040313627B68B0
:101C6C00DB68002B15D0FFF769FB38610AE0FFF742
:101C7C0065FB02463B69D31A41F28832934201D983
:101C8C000323ABE0574B1B6A03F00203002BEED08F
:101C9C0014E0FFF753FB38610AE0FFF74FFB0246F5
:101CAC003B69D31A41F28832934201D9032395E060
:101CBC004C4B1B6A03F00203002BEED1FB7D012B76
:101CCC0005D1484BDB69474A23F08053D3617B68CD
:101CDC00DB69002B00F08180424B5B6803F00C0346
:101CEC00082B61D07B68DB69022B46D13F4B00226D
:101CFC001A60FFF723FB386108E0FFF71FFB024671
:101D0C003B69D31A022B01D9032367E0354B1B68BF
:101D1C0003F00073002BF0D17B681B6AB3F5803F96
:101D2C0008D1304B5B6823F400327B689B682D49EB
:101D3C0013434B602B4B5B6823F474127B68196A5A
:101D4C007B685B6A0B43274913434B60274B01228B
:101D5C001A60FFF7F3FA386108E0FFF7EFFA024672
:101D6C003B69D31A022B01D9032337E01D4B1B68A7
:101D7C0003F00073002BF0D02FE01C4B00221A60F4
:101D8C00FFF7DCFA386108E0FFF7D8FA02463B6946
:101D9C00D31A022B01D9032320E0124B1B6803F04A
:101DAC000073002BF0D118E07B68DB69012B01D1AB
:101DBC00012313E00B4B5B68FB60FB6803F4803280
:101DCC007B681B6A9A4206D1FB6803F470127B682D
:101DDC005B6A9A4201D0012300E0002318461837B1
:101DEC00BD4680BD001002400070004060004242C1
:101DFC0080B584B000AF786039607B68002B01D16E
:101E0C000123D0E06A4B1B6803F007033A689A423F
:101E1C0010D9674B1B6823F0070265493B681343D5
:101E2C000B60634B1B6803F007033A689A4201D0BE
:101E3C000123B8E07B681B6803F00203002B20D061
:101E4C007B681B6803F00403002B05D0594B5B68BF
:101E5C00584A43F4E06353607B681B6803F0080343
:101E6C00002B05D0534B5B68524A43F460535360CC
:101E7C00504B5B6823F0F0027B689B684D49134321
:101E8C004B607B681B6803F00103002B40D07B6820
:101E9C005B68012B07D1474B1B6803F40033002B05
:101EAC0015D101237FE07B685B68022B07D1414B86
:101EBC001B6803F00073002B09D1012373E03D4B29
:101ECC001B6803F00203002B01D101236BE0394B9B
:101EDC005B6823F003027B685B68364913434B60F5
:101EEC00FFF72CFAF8600AE0FFF728FA0246FB68C5
:101EFC00D31A41F28832934201D9032353E02D4B7C
:101F0C005B6803F00C027B685B689B009A42EBD128
:101F1C00274B1B6803F007033A689A4210D2244BF4
:101F2C001B6823F0070222493B6813430B60204BCC
:101F3C001B6803F007033A689A4201D0012332E090
:101F4C007B681B6803F00403002B08D0194B5B68FB
:101F5C0023F4E0627B68DB68164913434B607B68B3
:101F6C001B6803F00803002B09D0124B5B6823F4A9
:101F7C0060527B681B69DB000E4913434B6000F019
:101F8C0021F802460B4B5B681B0903F00F030A494F
:101F9C00CB5C22FA03F3094A1360094B1B68184601
:101FAC00FFF78AF9002318461037BD4680BD00BFE5
:101FBC000020024000100240DC28000850000020E5
:101FCC005800002080B487B000AF0023FB600023D2
:101FDC00BB6000237B6100237B6000233B611E4BB5
:101FEC005B68FB60FB6803F00C03042B02D0082B2E
:101FFC0003D027E0194B3B6127E0FB689B0C03F0F7
:10200C000F03174AD35C7B60FB6803F48033002B0F
:10201C0010D0114B5B685B0C03F00103114AD35CCD
:10202C00BB607B680D4A02FB03F2BB68B2FBF3F3A7
:10203C007B6104E07B680C4A02FB03F37B617B69E8
:10204C003B6102E0054B3B6100BF3B6918461C3706
:10205C00BD4680BC704700BF0010024000127A00E1
:10206C00EC280008FC28000800093D0080B485B06D
:10207C0000AF78600A4B1B680A4AA2FB03235B0A79
:10208C007A6802FB03F3FB6000BFFB685A1EFA6020
:10209C00002BF9D100BF00BF1437BD4680BC704780
:1020AC0050000020D34D621080B582B000AF786034
:1020BC007B68002B01D1012341E07B6893F83D3014
:1020CC00DBB2002B06D17B68002283F83C207868B9
:1020DC00FEF7BCFF7B68022283F83D207B681A6800
:1020EC007B6804331946104600F056FA7B680122CF
:1020FC0083F846207B68012283F83E207B6801220E
:10210C0083F83F207B68012283F840207B68012202
:10211C0083F841207B68012283F842207B680122EE
:10212C0083F843207B68012283F844207B680122DA
:10213C0083F845207B68012283F83D200023184654
:10214C000837BD4680BD000080B485B000AF786014
:10215C007B6893F83D30DBB2012B01D0012335E0D5
:10216C007B68022283F83D207B681B68DA687B68F9
:10217C001B6842F00102DA607B681B68164A9342C6
:10218C0009D07B681B68B3F1804F04D07B681B6857
:10219C00124A934211D17B681B689B6803F00703BA
:1021AC00FB60FB68062B10D07B681B681A687B6889
:1021BC001B6842F001021A6007E07B681B681A6812
:1021CC007B681B6842F001021A6000231846143722
:1021DC00BD4680BC704700BF002C0140000400408D
:1021EC0080B584B000AF78607B681B68DB68FB60EF
:1021FC007B681B681B69BB60BB6803F00203002B88
:10220C0020D0FB6803F00203002B1BD07B681B68FB
:10221C006FF002021A617B6801221A777B681B68D7
:10222C009B6903F00303002B03D0786800F098F946
:10223C0005E0786800F08BF9786800F09AF97B6813
:10224C0000221A77BB6803F00403002B20D0FB6834
:10225C0003F00403002B1BD07B681B686FF0040297
:10226C001A617B6802221A777B681B689B6903F4EE
:10227C004073002B03D0786800F072F905E07868A1
:10228C0000F065F9786800F074F97B6800221A7721
:10229C00BB6803F00803002B20D0FB6803F0080395
:1022AC00002B1BD07B681B686FF008021A617B68DF
:1022BC0004221A777B681B68DB6903F00303002B8D
:1022CC0003D0786800F04CF905E0786800F03FF92D
:1022DC00786800F04EF97B6800221A77BB6803F02F
:1022EC001003002B20D0FB6803F01003002B1BD035
:1022FC007B681B686FF010021A617B6808221A77E2
:10230C007B681B68DB6903F44073002B03D078688F
:10231C0000F026F905E0786800F019F9786800F00B
:10232C0028F97B6800221A77BB6803F00103002BA5
:10233C000CD0FB6803F00103002B07D07B681B68F3
:10234C006FF001021A617868FEF738FEBB6803F083
:10235C008003002B0CD0FB6803F08003002B07D00C
:10236C007B681B686FF080021A61786800F06FFA66
:10237C00BB6803F04003002B0CD0FB6803F0400358
:10238C00002B07D07B681B686FF040021A617868DD
:10239C0000F0F8F8BB6803F02003002B0CD0FB68AE
:1023AC0003F02003002B07D07B681B686FF0200222
:1023BC001A61786800F042FA00BF1037BD4680BD44
:1023CC0080B584B000AF786039600023FB737B6804
:1023DC0093F83C30012B01D10223B4E07B6801223D
:1023EC0083F83C207B68022283F83D207B681B68C5
:1023FC009B68BB60BB6823F07703BB60BB6823F4AE
:10240C007F43BB607B681B68BA689A603B681B683B
:10241C00B3F5005F3ED0B3F5005F00F28780B3F5F3
:10242C00805F00F08680B3F5805F7FD8702B1AD068
:10243C00702B7BD8602B50D0602B77D8502B3CD096
:10244C00502B73D8402B58D0402B6FD8302B64D0E6
:10245C00302B6BD8202B60D0202B67D8002B5CD076
:10246C00102B5AD062E07B6818683B6899683B680F
:10247C005A683B68DB6800F06AF97B681B689B68EC
:10248C00BB60BB6843F07703BB607B681B68BA68B2
:10249C009A604FE07B6818683B6899683B685A689B
:1024AC003B68DB6800F053F97B681B689A687B68B3
:1024BC001B6842F480429A603CE07B6818683B6879
:1024CC0059683B68DB681A4600F0CAF87B681B68E1
:1024DC005021184600F021F92CE07B6818683B6805
:1024EC0059683B68DB681A4600F0E8F87B681B68A3
:1024FC006021184600F011F91CE07B6818683B68F5
:10250C0059683B68DB681A4600F0AAF87B681B68C0
:10251C004021184600F001F90CE07B681A683B6812
:10252C001B681946104600F0F8F803E00123FB7312
:10253C0000E000BF7B68012283F83D207B6800220D
:10254C0083F83C20FB7B18461037BD4680BD80B419
:10255C0083B000AF786000BF0C37BD4680BC7047BD
:10256C0080B483B000AF786000BF0C37BD4680BC30
:10257C00704780B483B000AF786000BF0C37BD46A5
:10258C0080BC704780B483B000AF786000BF0C375C
:10259C00BD4680BC7047000080B485B000AF786049
:1025AC0039607B681B68FB607B682B4A934207D0C1
:1025BC007B68B3F1804F03D07B68284A934208D1E3
:1025CC00FB6823F07003FB603B685B68FA6813439D
:1025DC00FB607B68204A934207D07B68B3F1804F45
:1025EC0003D07B681D4A934208D1FB6823F44073E7
:1025FC00FB603B68DB68FA681343FB60FB6823F005
:10260C0080023B685B691343FB607B68FA681A6065
:10261C003B689A687B68DA623B681A687B689A62E6
:10262C007B680D4A934203D13B681A697B681A6335
:10263C007B6801225A617B681B6903F00103002B44
:10264C0005D07B681B6923F001027B681A6100BF0F
:10265C001437BD4680BC7047002C0140000400407C
:10266C0080B487B000AFF860B9607A60FB681B6A11
:10267C007B61FB681B6A23F00102FB681A62FB6832
:10268C009B693B613B6923F0F0033B617B681B0159
:10269C003A6913433B617B6923F00A037B617A69D6
:1026AC00BB6813437B61FB683A699A61FB687A6982
:1026BC001A6200BF1C37BD4680BC704780B487B01F
:1026CC0000AFF860B9607A60FB681B6A7B61FB68DD
:1026DC001B6A23F01002FB681A62FB689B693B6162
:1026EC003B6923F470433B617B681B033A691343DA
:1026FC003B617B6923F0A0037B61BB681B017A699A
:10270C0013437B61FB683A699A61FB687A691A62C8
:10271C0000BF1C37BD4680BC704780B485B000AF8D
:10272C00786039607B689B68FB60FB6823F0700302
:10273C00FB603A68FB68134343F00703FB607B685C
:10274C00FA689A6000BF1437BD4680BC704780B4ED
:10275C0087B000AFF860B9607A603B60FB689B683B
:10276C007B617B6923F47F437B613B681A027B6846
:10277C001A43BB6813437A6913437B61FB687A691C
:10278C009A6000BF1C37BD4680BC704780B485B0D2
:10279C0000AF786039607B6893F83C30012B01D135
:1027AC00022341E07B68012283F83C207B680222F3
:1027BC0083F83D207B681B685B68FB607B681B684B
:1027CC009B68BB60FB6823F07003FB603B681B6875
:1027DC00FA681343FB607B681B68FA685A607B6875
:1027EC001B68144A934209D07B681B68B3F1804F75
:1027FC0004D07B681B68104A93420CD1BB6823F051
:10280C008003BB603B685B68BA681343BB607B6842
:10281C001B68BA689A607B68012283F83D207B684C
:10282C00002283F83C20002318461437BD4680BC98
:10283C00704700BF002C01400004004080B483B0FE
:10284C0000AF786000BF0C37BD4680BC704780B4C9
:10285C0083B000AF786000BF0C37BD4680BC7047BA
:10286C0070B500260C4D0D4C641BA410A64209D16A
:10287C0000F022F800260A4D0A4C641BA410A64254
:10288C0005D170BD55F8043B98470136EEE755F875
:10289C00043B98470136F2E700290008002900089C
:1028AC00002900080429000803460244934200D181
:1028BC00704703F8011BF9E7F8B500BFF8BC08BC7A
:1028CC009E467047F8B500BFF8BC08BC9E467047E2
:1028DC0000000000000000000102030406070809C4
:1028EC0002030405060708090A0B0C0D0E0F101045
:0428FC0001020000D5
:042900003101000899
:042904000D010008B9
:1029080001000000010000000100000001000000BB
:1029180001000000010000000100000001000000AB
:10292800010000000100000001000000010000009B
:10293800C800000088130000B80B0000D007000092
:1029480088130000D0070000B80B00000100000049
:1029580000127A000A0000001000000001000000C8
:040000050800124D90
:00000001FF
